:020000040800F2
:1000000090060020D1000008911A00086919000824
:1000100000000000000000000000000000000000E0
:10002000000000000000000000000000B71A0008F7
:100030000000000000000000931A0008B91A000830
:10004000E3000008E3000008E3000008E300000804
:10005000E3000008E1090008E3000008E3000008ED
:10006000E3000008E3000008590900087D090008C2
:10007000E3000008E3000008E3000008E3000008D4
:10008000E3000008E300000800000000E3000008AF
:10009000E3000008E3000008E3000008E3000008B4
:1000A000E3000008951A0008E3000008B5220008E4
:1000B000E300000800000000E30000080348854654
:1000C00000F038FC00480047052F0008900600208B
:1000D0000448804704480047FEE7FEE7FEE7FEE7E6
:1000E000FEE7FEE7251B0008BD00000830B50B4603
:1000F000014600202022012409E00D46D5409D4202
:1001000005D31D469540491B254695404019154687
:10011000521E002DF1DC30BDF0B51FB406460020A4
:1001200082B005464024019100901BE001992246CF
:100130000F46304600F020F8049A059B801A99413A
:1001400010D310461946224600F085FA361A8F4120
:100150000197224601200021009F00F07CFA381808
:100160004D4100902046641E0028DFDC019B009872
:100170002946324607B0F0BD10B5202A04DB0846F8
:10018000203AD040002110BD0B46D340D04020245F
:10019000A21A91400843194610BD03460B439B0722
:1001A00003D009E008C9121F08C0042AFAD203E0EC
:1001B0000B780370401C491C521EF9D27047D2B212
:1001C00001E00270401C491EFBD270470022F6E796
:1001D00010B513460A4604461946FFF7F0FF2046BD
:1001E00010BDF8B502464A40D40F42004B005208F9
:1001F0005B089A4202D20246084611464A0023D0C2
:10020000C30D4A00DDB2120EAD1A202D35DA4902B7
:100210000126490AF6058A19002C00D052422021F5
:100220004F1B1146B9402A411018C20D9A4221D0E5
:10023000002C17D0012D08DCDA05801AD20F8019A6
:10024000D207DBB200F032FAF8BDDA05801A0123DA
:1002500040001B06C01880185A428018CA0F10436D
:10026000490007E04908C2071143DA05801A8019DE
:100270004008801800F012FAF8BD61000122511AFE
:10028000001BF7E70122D2075140AAE70122D2075B
:100290005040A6E7024670B54A40D30FDB07400046
:1002A0002DD04A002AD0010E140E000212020919A4
:1002B000400A520A8418E50104465443000A120A0F
:1002C0002E045043A4194219200CC543AA18120C3D
:1002D0000125AD03521C521912047F39240400D0A9
:1002E000521C104301D44000491EC2B20C06C00982
:1002F0002018401C4008802A02D003E0002070BD76
:1003000040084000002900DA0020184370BD70B595
:1003100002464A40D50F40004A00ED074008520807
:10032000002814D0002A12D0C40DD30D41020120A0
:10033000C0055202490A520AE41A091812187D34FB
:10034000914201D3641C00E04900002C01DA002036
:1003500070BD0023914201D3891A0343400849002C
:100360000028F7D100290AD0914202D10121C90702
:1003700005E0914201D2012101E00121C943E005DC
:10038000C018401900F08AF970BD420005D0420043
:10039000120E52428A4201DB00207047C90508183C
:1003A00070470000F0B507460846584087B0C00FB8
:1003B000049048000E46590040084908BC1A88417C
:1003C00005D2384631461E4617460B4602465800AF
:1003D000400810434CD0300D039040055900400DAB
:1003E000490D0590401A0290402872DA1803012145
:1003F000000B09050843019004980092002805D0DD
:1004000001995242002088410092019002984021B7
:100410000A1A0199009800F01EF905460C466B4631
:1004200007CB00F028F9C0197141039A0E0D002383
:10043000D71756401A467A40164344D0049A002AE9
:100440002DD0029A012A039A15DC1205C01A914197
:1004500001263605001C7141D20F059ED20700937C
:10046000019202962A46234600F066F907B0F0BDD5
:1004700038463146FAE71605224A0F46B218C01A26
:10048000B74101210905001C4F4100187F41114669
:1004900018187941E20F10436D19644113E0E20727
:1004A0006D0815436408C2071443039A0126120518
:1004B000C01A91413605001C7141CE0740083043F7
:1004C0004908C01851412A46234600F028F9CDE7D3
:1004D000FFE7049801224000C117121A00238B4144
:1004E00004983146C417381AA141EEE730B401240C
:1004F000E407634030BC55E730B40124E4076140B1
:1005000030BC4FE70000E0FFF0B51FB488B00B9996
:100510000998002448400999C00F490049080991E9
:10052000C0070B990090490049080B910999089858
:10053000A64608431CD00B990A98084318D009987E
:1005400001244000420D4800410D09982405000394
:10055000000B204309900B980003000B20430B90E5
:1005600050181C494018002201901446104605E01E
:10057000002001460DB0F0BD032801DA034600E07B
:1005800003239C46C11A0AAE0AE05F0008ADED5B8A
:100590004F00F75B7D430027AA187C41491C5B1E76
:1005A0006145F2DD410004AB5A522104120C0A43AA
:1005B000240C401C0828DFDB01980290009970464B
:1005C00001910090059B049A0799069800F0B4F8F1
:1005D000D0E700000DFCFFFFC217C10F504010B55F
:1005E0004018CA079623002100F060F810BD10B52E
:1005F00000229623114600F059F810BDC20F4100A9
:1006000040020123400ADB05D207090EC0187F29EA
:1006100001DA00207047962903DC9623591AC84056
:1006200001E096398840002AF4D040427047C20F5A
:10063000D207400040080BD0C10D0723DB01C918C9
:1006400040020905400A1143C208400711437047A0
:1006500000200146704710B5202A04DB0146203AED
:100660009140002010BD914020239C1A0346E34096
:100670001943904010BD10B5202A06DBCB17084661
:10068000203A1041C1170B4306E00B461341D040FE
:100690002024A21A91400843194610BD002904DA0B
:1006A000401C490001D140084000704770B400244C
:1006B000050C05D11024000402D1002921D01124F9
:1006C000050E01D100020834050F01D10001241DDF
:1006D000850F01D18000A41C002801DB4000641CB0
:1006E000002908D020252E1B0D46F540A14000D042
:1006F00001212943084301061B1B000ADB1D02D50B
:10070000002070BC7047DB05181880180029F8DA43
:10071000401C4900F5D170BC40084000704710B53E
:10072000002B08DA0024401C614192185B411A43F7
:1007300001D14008400010BDF0B51FB482B005469D
:100740000C0003D0084601F0FDFD02E001F0FAFDC7
:1007500020300246009021462846FFF77CFF049B8C
:10076000059A04460F4618431143084314D018460F
:1007700010431BD0009840210A1A18460599FFF72C
:10078000FBFC05460E46009A05990498FFF763FFA7
:10079000084305D0012004E02046394607B0F0BDEB
:1007A0000020C11705430E432C43374300990E9890
:1007B0006305401A7905E40A00220C43FD0A0A3059
:1007C00002D500200146E9E70105101969410C9C9A
:1007D0000D9D00196941FFF7A2FFDFE7F0B50C4658
:1007E0005C4085B0E40FE40703944C0000266408E5
:1007F00059009446490802460296224321D0624697
:100800000A431ED06200570D4A000E032303550D04
:10081000012402462C492405781B1B0B360B40187B
:1008200023432643614600901C46501AB44103D32B
:100830000098401C009002E0921800985B4100284C
:1008400003DA0020014605B0F0BD002001210905B2
:100850000746864611E064461D46141BB54106D383
:100860006546521BB341744607430C43A646CD0769
:1008700040084908284392185B4105460D43EAD1D8
:100880001046184313D06046194650407140084343
:1008900006D06046101AB34106D20122002306E0BA
:1008A00000220123DB0702E00122D243531000980B
:1008B00074460105381C6141029C039D0019694181
:1008C000FFF72DFFBFE70000FD0300004A0009030A
:1008D0000123090B1B0519430A4B10B5520D9A420F
:1008E00002DA0020014610BD064B34339A4203DC85
:1008F0009A1AFFF741FC10BD034BD218FFF7ABFE6D
:1009000010BD0000FF030000CDFBFFFF10B5002964
:1009100004DB0124E40740428C412146002B04DB28
:100920001C460123DB075242A341994200D1904269
:1009300010BD0000064C0125064E05E0E36807CC1B
:100940002B430C3C98471034B442F7D3FFF7BAFB63
:100950007C3000089C30000810B509200421C00636
:1009600000F0CAF9034800F068F8034800F065F8A1
:1009700010BD0000000100204401002010B5034814
:1009800000F05BF8024800F058F810BD4C0200205F
:100990000802002010B504460068054940181421DB
:1009A000FFF7A4FB800020640248E06310BD000054
:1009B000F8FFFDBF0000024030B5056C0124AC40DB
:1009C000C56B6C60046863604368102B036803D0D8
:1009D00099600068C26030BD9A600068C16030BD37
:1009E00010B5012000F0D8F8022000F0D5F810BDB5
:1009F000704770B50024014620314A78022A03D09E
:100A000004218163012416E0026813680E25AB43BC
:100A10001360026813685B085B0013600122056CB9
:100A20001346AB40C56B6B604A7000220A70416B85
:100A3000002900D08847204670BDF0B4C16B0D6816
:100A400001680C680422066C1346B3402B420DD09B
:100A500063070BD50B689B0602D40B6893430B60AE
:100A6000016C8A40C16B4A60C16A19E00227B74035
:100A700002462F4001232032002F15D0A70713D59F
:100A80000C68A40604D40C680A25AC430C605370AF
:100A9000036C02219940C36B596000211170816A77
:100AA000002916D0F0BC08470827B7402F4210D0C5
:100AB00024070ED50C680E25AC430C60046C194657
:100AC000A140C46B61608363537000211170016B9E
:100AD000E6E7F0BC7047000070B5040021D00221A9
:100AE0002046203005464170226811680E48A368F0
:100AF0000140606826691843E3683343184363691B
:100B00001843A3691843E36918430843106020465B
:100B1000FFF740FF0021A16301206870297008469B
:100B200070BD012070BD00000FC0FFFFF8B5044686
:100B30008C46203001780025012909D00126067055
:100B400041780027012905D0077002252846F8BD05
:100B50000220F8BD02214170A7632068016849089E
:100B60004900016061462046FFF726FFE06A002841
:100B70002068016802D00E22114306E00A221143C8
:100B800001602068016804229143016020680168C7
:100B900031430160DAE7704710B504494A690242FF
:100BA00002D04861FFF7F7FF10BD000000040140CC
:100BB000F8B500238DE001249C40A44622407DD05E
:100BC0004C68022C01D0122C0CD1DC08A400271890
:100BD0003C6A5D07ED0E0F26AE40B4430E69AE4091
:100BE00026433E6205685E000324B4400F79A543A6
:100BF000BF07BF0FB7402F4307604D68012D05D0D9
:100C0000022D03D0112D01D0122D0ED18568CF6891
:100C1000A543B7402F43876047686546AF430D79CA
:100C2000ED06ED0F9D403D434560C568A5438C68CA
:100C3000B4402C43C4604C68E40049D5284CA569F5
:100C400001263543A561A4699D0834400094254CD4
:100C5000AD002F19BC689D072E0F0F25B540AC4382
:100C60000925ED06A84201D100250FE01E4DA8423E
:100C700001D101250AE01D4DA84201D1022505E060
:100C80001B4DA84201D1032500E00525B5402543B1
:100C9000BD60184C25684E689543F60300D5154392
:100CA000256065684E689543B60300D515436560B9
:100CB000A5684E689543F60202D500E008E01543AA
:100CC000A560E5684E689543B60200D51543E5601A
:100CD0005B1C0A681446DC4000D06CE7F8BD0000DD
:100CE00000100240000001400004004800080048D5
:100CF000000C00480004014042690A4200D0090487
:100D000081617047002A01D081617047816270471C
:100D10000148806870470000080000200248816890
:100D200002788918816070470800002010B50648D5
:100D30000168102211430160002000F007F800F064
:100D400029F8002010BD00000020024010B5044624
:100D50000D4801787D20C000FFF7C8F901460B4817
:100D60000068FFF7C3F900F0CBFB00280AD1042C80
:100D700008D200222146401E00F02CF804480460EE
:100D8000002010BD012010BD08000020140000202C
:100D90000C00002008B508488169012211438161D7
:100DA000816911400091C26901040A43C261C069AE
:100DB0000840009008BD000000100240002805DB3C
:100DC000C106C90E01208840014908607047000033
:100DD00000E100E010B501F0FDFA10BDF8B50546E0
:100DE0000068394CC00352D5E0690026C00007D422
:100DF000E16920040143E161E169014001260091BC
:100E000032480168C90510D4016882151143016098
:100E1000FFF77EFF074604E0FFF77AFFC01B642858
:100E200024D82A480068C005F6D5206A03273F0267
:100E3000384020D06968394081421CD0206A226A3B
:100E4000B843012109040A432262226A8A432262CA
:100E50002062C0070FD0FFF75BFF009008E0FFF7AC
:100E600057FF0099411A1A48814201D90320F8BD61
:100E7000206A8007F3D5206A6968B8430843206276
:100E8000002E04D0E169012000078143E161287848
:100E9000C00705D0206BA968800880000843206344
:100EA0002878800605D5206B10218843E96808431F
:100EB00020632888400505D5206B40218843296997
:100EC000084320630020F8BD00100240007000407D
:100ED00088130000F8B50F46060059D03A4D28682F
:100EE000C007C00FB84209D2286840084000384304
:100EF00028602868C007C00FB84249D13068334C19
:100F000081070CD5400704D5606807210902084312
:100F100060606068F0218843B168084360603078A1
:100F2000C00726D0706801280ED0216802280ED094
:100F3000890700292CDA616889088900014361600A
:100F4000FFF7E6FE00900DE021688903F1E78901D3
:100F5000EFE7FFF7DDFE0099411A1D48814201D9F4
:100F60000320F8BD60680C21084071688900884240
:100F7000EFD12868C007C00FB8420BD928684008D5
:100F80004000384328602868C007C00FB84201D02D
:100F90000120F8BD3078400706D5606807210902B6
:100FA0008843F1680843606000F028F86168094AE6
:100FB0000906090F515CC840074908600020FFF787
:100FC000C5FE0020F8BD00000020024000100240D5
:100FD000881300004C300008140000200448054924
:100FE00000684968044A4905490F515CC840704788
:100FF00014000020001002405C30000810B514A35B
:101000000FCB88B06C460FC415A30FCB0FC4184A82
:1010100051680C200B4603401648042B16D0082BB1
:1010200014D18B021B0F6C46E45CD26A04AB12072E
:10103000120F9A5CC90305D500231946FFF76CF817
:10104000214601E020460C4901F0ABF908B010BD83
:1010500002030405060708090A0B0C0D0E0F1010F9
:101060000102030405060708090A0B0C0D0E0F10F8
:101070000010024000127A0000093D00FEB5040095
:1010800070D02078DC4DC0074AD068680007800F18
:10109000012807D068680007800F022809D1686816
:1010A000C00306D5286880033AD560680028E7D0D9
:1010B00036E06168012914D001208004002901D0A4
:1010C000052914D02A68012109048A432A60296865
:1010D000814329606068002816D0FFF719FE064694
:1010E0000EE028680121090408432860F2E7296816
:1010F00001432960F5E7FFF70BFE801B64286ED8DB
:1011000028688003F7D50BE0FFF702FE064604E0EF
:10111000FFF7FEFD801B6428F1D828688003F7D410
:1011200020780126800700283CDA68680007800FD5
:1011300007D068680007800F022809D16868C003DB
:1011400006D42868800716D5E06801280AD112E085
:10115000E0680028286816D030432860FFF7D8FDE3
:10116000074605E043E1FFF7D3FDC01B0228C6D8C0
:1011700028688007F7D52868F82188432169C900C5
:10118000084328600EE0400840002860FFF7C0FDDB
:10119000074604E0FFF7BCFDC01B0228AFD8286853
:1011A0008007F7D42078000722D5E0690028686A14
:1011B0000ED030436862FFF7ABFD074604E0FFF74F
:1011C000A7FDC01B02289AD8686A8007F7D50FE0F0
:1011D000400840006862FFF79BFD074605E09DE080
:1011E000FFF796FDC01B022889D8686A8007F7D4EC
:1011F000207804274007002860DA00200190E86981
:10120000C00008D4E969B8060143E961E969014011
:1012100001200091019079480168C90511D4016845
:10122000821511430160FFF773FD009005E0FFF7A1
:101230006FFD0099401A642870D870480068C00596
:10124000F5D5A06801280AD0002801D0052810D0C3
:10125000286A400840002862286AB84301E0286AEA
:1012600030432862A068002812D0FFF751FD00909B
:101270000AE0286A38432862F1E7FFF749FD009940
:10128000411A5F48814249D8286A8007F5D50DE0A8
:10129000FFF73EFD009006E0FFF73AFD0099411A86
:1012A000574881423AD8286A8007F5D40198002827
:1012B00004D0E969012000078143E9612078C00674
:1012C00035D5606901280CD0401D686B23D03843A8
:1012D0006863686B400840006863FFF719FD0646C5
:1012E00022E0686B38436863686B30436863FFF7DC
:1012F0000FFD064604E0FFF70BFD801B02285BD8BC
:10130000686B8007F7D5686BF8218843A169C9002D
:10131000084368630BE0B8436863F4E74CE0FFF709
:10132000F7FC801B022847D8686B8007F7D4206A37
:1013300000285ED069680907890F022942D001267A
:1013400036060228286805D0B0432860FFF7E0FC85
:10135000044633E0B0432860FFF7DAFC074604E0B8
:10136000FFF7D6FCC01B022826D828688001F7D4D6
:10137000E86AE16A000900010843E862616AA06A5C
:10138000084369683D221204914308436860286855
:1013900030432860FFF7BCFC044604E0FFF7B8FCCC
:1013A000001B022808D828688001F7D521E0FFF744
:1013B000AFFC001B022801D90320FEBD2868800174
:1013C000F5D416E00128F8D06868E96A0122120411
:1013D000636A02409A420AD10907E26A090F914200
:1013E00005D10F2189040840A16A884201D001205B
:1013F000FEBD0020FEBD0000001002400070004055
:101400008813000070470000F8B5016804464A6878
:101410008868C043430606D5C30704D1D3435B069F
:1014200001D4E16C05E0830706D4D3431B0603D443
:10143000216D20468847F8BD830603D5430601D5B4
:10144000C305F8D4D3439B06F5D423464506403361
:10145000002D09DB5D7F032D48D0256E0426354322
:101460002566CD688D680095860601274025002EEB
:1014700007DB266E3E4326668E6800960E68AE43F6
:101480000E60C00506D4206E08210843206620683F
:1014900080680090206E0028CDD020684168E0264A
:1014A000B14341605F77900701D4D00722D0206814
:1014B0004168890889004160A06D104E002808D05D
:1014C0004663A06DFFF795FA002802D0206E2843EE
:1014D0002066606D0028AED04663606DFFF789FA24
:1014E0000028A8D0206E28432066F8BDC868886808
:1014F0000090F8BD2046FFF785FFF8BDA51A00084B
:10150000094910B5401E884201D9012010BD074C81
:1015100060610321081F00F05DFF0020A06107202B
:101520002061002010BD0000FFFFFF0000E000E090
:1015300070477047F8B502680446D069116893682F
:10154000524D05402E462025002E68D0DE07F60FAE
:10155000FF2721370F40374375D0C70706D0CF0587
:1015600004D501271762E26F3A43E267820708D584
:10157000DA0706D0276802223A62E26F04273A436C
:10158000E267420708D5DA0706D0236804221A6208
:10159000E26F02231A43E267020709D50A462A408E
:1015A000324305D0236808221A62E36F1343E367CE
:1015B000020508D54A0106D501222368D2021A6223
:1015C000E26F2A43E267E26F002A30D0800606D538
:1015D000880604D5216E002901D020468847E06F97
:1015E00021688968490602D42821084224D020466F
:1015F00000F056FD20688168490619D581684022AF
:1016000091438160E06E002812D021494163E06E71
:10161000FFF7EFF900280AD0E06E416B06E086067E
:1016200011D58E060FD5216E1DE020468847F8BDE6
:101630002046FFF77EFFF8BD2046FFF77AFF002027
:10164000E067F8BDFFE7C60208D55B0206D50120BA
:10165000000510622046FFF76BFFF2E7030605D591
:101660000B0603D5616E0029DFD1EAE74006E8D515
:101670004806E6D51368204640218B431360656712
:101680000021616600F06EF9DBE700000F08000042
:101690000D20000810B5040003D0606F002802D0B0
:1016A00007E0012010BD002170200155204600F008
:1016B00027F8242060672068016849084900016014
:1016C000204600F005FD0128ECD0606A002802D019
:1016D000204600F005FC206841680922D2029143AF
:1016E0004160206881682A229143816020680168F6
:1016F000012211430160204600F058FC10BD00009B
:10170000F0B587B0064614216846FEF75FFD314903
:10171000306888425CD130488269012189030A43DC
:10172000826182690A4005924269C9000A434261A6
:1017300040690024084005900320400200900220E8
:10174000019003200390012004900920029469462F
:10175000C006FFF72DFA2148214D11C52C60AC6061
:10176000EC602C6180206C6168601D48083DFFF7CB
:10177000B3F9002801D0FFF73BF91A4F3868391543
:1017800008433860F5666E621448154D14384435C8
:1017900028601020AC6068602C616C61AC618020B6
:1017A000EC61E8602846FFF797F9002801D0FFF7C1
:1017B0001FF938680121490208433860B5660022E4
:1017C00011461B206E62FFF705FB1B20FFF7F6FAA0
:1017D00007B0F0BD00380140001002405800024040
:1017E0000802002000000140FFB50446406F83B0AE
:1017F00017460D4620285CD1002D0AD0002F08D0B6
:10180000A168C001814207D12069002804D1E807FE
:1018100002D0012007B0F0BD204660300290007C6D
:10182000012846D00298012101740020E0672120A0
:101830006067FFF76DFA264640360190378277825F
:101840000120A1680003814202D12069002802D052
:101850002F46002511E000270FE0002280212046BE
:1018600000F0DAFC002815D1002F15D02168387857
:1018700008857F1C708A401E7082708A019B002838
:1018800006980090E9D100224021204600F0C4FCD7
:10189000002808D00320BDE728882168C005C00DB6
:1018A0000885AD1CE6E720206067029900200874D7
:1018B000B0E70220AEE70000F8B50446406F2028EC
:1018C00047D100290BD0002A09D00123A0681B03AF
:1018D000984206D12069002803D1C80701D0012011
:1018E000F8BD25466035287C012832D001202874B7
:1018F00020464030E164028242820026E6672120D1
:101900006067A06E002819D013498162A16E134848
:10191000C862A16E12480863A06E1346466327682A
:10192000E16C3A462832A06EFFF700F9002805D096
:101930001020E0672E7420206067D0E721684020E7
:1019400008622E7420688168802211438160002023
:10195000F8BD0220F8BD00006920000897200008AB
:101960002120000870477047FEE7000008B50C48CA
:1019700041690122114341614069104000220090F9
:1019800011460A20FFF726FA0A20FFF717FA00226D
:1019900011460B20FFF71EFA0B20FFF70FFA08BDC8
:1019A0000010024070B586B014216846FEF70EFCA8
:1019B00026484269012189050A43426142690A4079
:1019C0000592426949110A43426142690A400592FF
:1019D000426949000A434261406909260840F60607
:1019E0000590002210213046FFF78CF9032000906B
:1019F000174800240190694602943046FFF7D8F852
:101A00001020012500900195694602950394304607
:101A1000FFF7CEF80F4800900294694601950394B1
:101A20003046FFF7C5F804200090029469460195FE
:101A300003943046FFF7BCF8002211460520FFF75B
:101A4000C9F90520FFF7BAF906B070BD00100240D1
:101A5000000011100880000010B50C480A49016010
:101A60007D210903416000218160C16001618161C4
:101A7000C1610C22016242614162FFF70BFE002846
:101A800001D0FEF7B5FF10BD0038014088010020ED
:101A90007047704710B50248FFF7B6FC10BD000054
:101AA0009C00002010B5406A002146221152C187D7
:101AB000FFF7A8FC10BD704710B5FFF72FF910BD58
:101AC00030B595B030216846FEF780FB00240C94B9
:101AD0000D940E94142110A80F94FEF777FB0320A9
:101AE00000900120019003901020049000030990C1
:101AF000000102250A9008950B946846FFF7BEFA8C
:101B000007200C900E9401210D950F940CA8FFF75F
:101B1000E1F9212010901294139410A8FFF75EF9B8
:101B200015B030BD70470000F7B5082082B0002521
:101B3000164601904C497D274A4A2C46BF0128464B
:101B40008A61012E06D0022E1BD0032E24D0042E33
:101B50000CD12CE04448856900240399029801F0D7
:101B600033F9641C642CF8DB3F498C69FEF734FDC3
:101B70000F21C943FEF709FC0090AC4222D82C1B70
:101B800022E03948856900240399029801F0A4F9FC
:101B9000641C642CF8DBE7E733488569002403996B
:101BA000029801F07EF9641C642CF8DBDCE72E4817
:101BB000856900240399029801F00FF9641C642CD4
:101BC000F8DBD1E7601B3C1A0198FEF710FD0546D3
:101BD0002046FEF70CFD2946FEF799FB2349FEF748
:101BE00096FB012E16D0022E21D0032E2CD0042ECF
:101BF0000ED1FEF71CFD04460D460098FEF717FDBA
:101C00000B4602461AA101950094032001F076F8D4
:101C100005B0F0BDFEF70BFD04460D460098FEF73B
:101C200006FD0B4602461BA101950094EDE7FEF769
:101C3000FEFC04460D460098FEF7F9FC0B460246F2
:101C40001DA101950094E0E7FEF7F1FC04460D4666
:101C50000098FEF7ECFC0B46024620A1019500948B
:101C6000D3E70000FFFFFF0000E000E000007A443F
:101C70004F5045524154494F4E5F4449563D2566A9
:101C800020206F76657274696D653A2566206D73E4
:101C90000A0000004F5045524154494F4E5F535582
:101CA0004D3D256620206F76657274696D653A2515
:101CB00066206D730A0000004F5045524154494F51
:101CC0004E5F5355423D256620206F7665727469DC
:101CD0006D653A2566206D730A0000004F5045522D
:101CE0004154494F4E5F4D554C3D256620206F763F
:101CF000657274696D653A2566206D730A0000008F
:101D0000F7B584B00026082002907D208001019064
:101D1000484C474835463746A0610698012806D00A
:101D200002280AD0032810D0042828D129E0A66967
:101D300005990498FEF755FA04E0A66905990498F8
:101D4000FEF7A0FA0746A56917E0FEF7E1FF00904D
:101D5000A669002505990498FEF79CFA7D21C90023
:101D60006D1C07468D42FBDBA569FEF7D1FF00998C
:101D7000421A31A1032000F0C1FFB54207D8741BFD
:101D800008E0A66905990498FEF7C1FADAE7019818
:101D9000A91B441A0298FEF72AFC05462046FEF7C6
:101DA00026FC2946FEF7B3FA2849FEF7B0FA069951
:101DB000012916D0022921D003292CD004290ED1C3
:101DC000FEF735FC04460D463846FEF730FC0B4660
:101DD00002461FA101950094032000F08FFF07B079
:101DE000F0BDFEF724FC04460D463846FEF71FFC06
:101DF0000B4602461FA101950094EDE7FEF717FC84
:101E000004460D463846FEF712FC0B46024622A158
:101E100001950094E0E7FEF70AFC04460D463846BB
:101E2000FEF705FC0B46024624A101950094D3E77A
:101E3000FFFFFF0000E000E0496E74657276616CA0
:101E40002074696D653A20256400000000007A4422
:101E50004F5045524154494F4E5F4449563D2566C7
:101E600020206F76657274696D653A2566206D7302
:101E70000A0000004F5045524154494F4E5F5355A0
:101E80004D3D256620206F76657274696D653A2533
:101E900066206D730A0000004F5045524154494F6F
:101EA0004E5F5355423D256620206F7665727469FA
:101EB0006D653A2566206D730A0000004F5045524B
:101EC0004154494F4E5F4D554C3D256620206F765D
:101ED000657274696D653A2566206D730A000000AD
:101EE00010B5818CC90707D001684A6801235B04DB
:101EF0009A43836A1A434A60818C890707D501682F
:101F00004A6801231B049A43C36A1A434A60818CBE
:101F1000490707D501684A6801239B049A43036B6C
:101F20001A434A60818C090707D501684A68012372
:101F3000DB039A43436B1A434A60818CC90607D579
:101F40000268916801231B039943836B19439160D5
:101F5000818C890607D501688A6801235B039A434F
:101F6000C36B1A438A60818C490612D503685A688C
:101F700001210905046C8A4322435A60026C8A429B
:101F800007D10268516803235B059943436C1943E9
:101F90005160818C090607D501684A680123DB047A
:101FA000806C9A4302434A6010BD0000F8B50026D9
:101FB0000446C667FEF7ACFE054620680068124F6F
:101FC000000709D501212B4600224905204600972C
:101FD00000F022F900280DD12068006840070BD5D9
:101FE00001212B46002289052046009700F014F9B4
:101FF000002801D00320F8BD20206067A06760346E
:1020000026740020F8BD0000FFFFFF0110B5406AF4
:102010000022014640314A834A82FFF78AFA10BD06
:1020200070B5446A606FA56F21688968002609064B
:10203000002906DA212804D152200653204600F058
:102040003FF820688068400606D5222D04D15A202A
:102050000653204600F024F8E06F10210843E067A3
:102060002046FFF766FA70BD10B501468969406ADF
:1020700020290DD0002252210A5201688A6880234B
:102080009A438A600068016840221143016010BDD4
:10209000FFF768FC10BD10B5406AFFF764FC10BD87
:1020A00001680A68FF2321339A430A6001688A683D
:1020B000520852008A602021816700210166704722
:1020C00001680A68C0239A430A602021416770476B
:1020D00070B5044680682169E2690843616900259A
:1020E0001143226808431168444B194001431160B1
:1020F00021684868032212039043E2681043486055
:10210000A169206A2268084391680B231B02994346
:10211000014391603A492068884210D13948006BE8
:102120008007800F11D0012805D0022805D0032890
:102130000AD1022009E0042007E0082005E0324926
:10214000884201D1002000E010200122E169D20381
:102150002E4E914228D1002806D0022807D004280C
:1021600017D0082844D11AE0FEF738FF13E0616861
:10217000274A48088018FDF7B9FF80B20146103998
:10218000B14235D82149491C01400007400F08439E
:1021900021E0FEF733FF616840004A08EAE7616822
:1021A000012248081204E5E7002806D0022807D0DB
:1021B000042813D008281BD116E0FEF70FFF0FE00C
:1021C0006168144A480811E0FDF790FF80B20146AB
:1021D0001039B1420CD82168C8600AE0FEF70EFF42
:1021E00061684A081018EFE7616848088018EBE753
:1021F0000125002020666066284670BDF369FFFF58
:10220000003801400010024000440040EFFF000091
:102210000024F40000127A00FFB581B005460F4695
:10222000044660350A9E38E0701C36D0FEF770FD1B
:102230000499401AB04221D8002E1FD020680168AE
:1022400049072AD5C069C043000526D4012021686A
:10225000C002086220680168FF22A1329143016038
:102260002068816849084900816020206067A06774
:10227000E06700202874032005B0F0BD20680168E5
:10228000FF22A1329143016020688168490849001A
:10229000816020206067A067EBE72068C16938464D
:1022A000884305D0002103988142BDD00020E3E798
:1022B0000121F8E710B50248FFF73CF910BD000016
:1022C000880100200FB410B503A9044B044A0298FA
:1022D00000F06CF910BC08BC04B01847ED2E0008E3
:1022E000180000200FB41CB50246002007AC0029DE
:1022F0000BD0491E01910092064B6A462146069872
:1023000000F054F9009A002111701CBC08BC04B004
:1023100018470000E52C00087CB515460246002051
:102320001C4600290BD0491E00920191044B6A46BD
:102330002146284600F03AF9009A002111707CBD30
:10234000E52C00082021020C01D010211046020AC1
:1023500001D010460839020901D01046091F820831
:1023600001D01046891E420801D0881E7047081A05
:102370007047F8B504148BB2264682B25E430D1442
:102380001046371458433604801900217941164607
:102390006E43371436048019794126466E438919F5
:1023A000F8BDF8B5040C8BB2264682B25E430D0C24
:1023B0001046370C584336048019002179411646DF
:1023C0006E43370C36048019794126466E438919CD
:1023D000F8BD00008307FF22DB0E9A408907090E33
:1023E0009940002808DB830809489B001B181868DF
:1023F00090430843186070470007000F08388308AF
:1024000004489B001B18D86990430843D861704763
:1024100000E400E000ED00E002E008C8121F08C17F
:10242000002AFAD170477047002001E001C1121F55
:10243000002AFBD170470000F0B51FB486B00998A0
:10244000089A030D0021024314D05148514A18182C
:10245000504305141198012810981AD0281A401CCE
:1024600000264D4F4D49009601910490002812DA44
:10247000444211E01198012449A3012801D1109888
:10248000C1430698119A84600360C26041600BB03A
:10249000F0BD4042E4E70446210500203F4A001C0D
:1024A00051410391029012E0E00707D032463B46CB
:1024B00001990098FEF728F80191009032463B46BA
:1024C00010461946FEF720F806460F466410002C09
:1024D000EAD10498039B0028029A0999089806DA21
:1024E000FEF712F8019B009AFEF70EF805E0FEF7E2
:1024F00075F9019B009AFEF771F904460E46002219
:10250000284BFEF703FA03D80020C043014607E03A
:102510000022254B20463146FDF744FFFEF7D6F951
:10252000102409E0002C0ADB0A220023FDF7F4FD49
:10253000079B30321A55641E02460A43F2D111221B
:10254000641C079B121B1C19119B012B03D0012338
:1025500008430ED10AE0084304D011201090002057
:10256000119077E71098151A6D1E0BE010988242B3
:1025700002DD00236D1C03E0824201DA00236D1EA0
:10258000002BEED0069811998260C16030C07EE7C2
:1025900001FCFFFF104D0000000014400000F03F60
:1025A000300000000000F0430000E03FFFB597B0AE
:1025B0000646002518E2252877D100242746FD4944
:1025C000049400E00443761C32780120203A9040C5
:1025D0000842F7D130782A280ED0022230780146FE
:1025E0003039092916D804990A235943303940183B
:1025F0001443761C0490F1E7189802C804911890CF
:10260000002904DA012040030443484204900220D8
:102610000443761C30782E2814D1042004437078AB
:10262000761C2A2809D11898761C80C8189009E0D1
:102630000A214F43303FC719761C307801463039A4
:102640000929F5D930786C2810D006DC4C281AD02E
:1026500068280ED06A2817D104E0742813D07A288D
:1026600012D110E00120400504430CE001210905CE
:1026700001E0032109050C437178814203D1012057
:1026800000052418761C761C3078119066280BD033
:1026900013DC58287DD009DC00287BD04528F6D0F3
:1026A0004628F4D047281AD1A5E118E0632835D090
:1026B000642870D0652812D19DE170286CD008DCA8
:1026C0006728F1D069287BD06E280DD06F2806D1FD
:1026D000BAE073282ED0752871D0782859D01A9A6C
:1026E000199990476D1C7EE16002400F022809D0C5
:1026F00003280DD00428189801680DD00D60001D26
:10270000189070E11898EA1701680D604A60F6E7C2
:10271000189801680D80F2E70D70F0E718986A4686
:1027200001781172001D18900020507202A80090CC
:10273000012005E0189802C8189000200091C043BD
:1027400061070DD5002101E00199491C0191B942B1
:1027500012DA8142F8DB009A515C0029F4D10BE0D7
:10276000002101E00199491C01918142FADB019AA3
:102770000099895C0029F5D1019904981A9B471AA0
:1027800021463846199A00F097FA019940194518E0
:102790000BE04FE02CE113E04EE000980099007848
:1027A000491C00911A9A199990470198401E01906E
:1027B000401CF2D1214638461A9B199A10E137E0A5
:1027C0000A200021009001916002410F022907D0E8
:1027D000189A01CA1892C2179446032908D00AE031
:1027E0001898C01DC108C90005C91891944607E092
:1027F00000B2C2179446042902D140B2C1178C46D8
:1028000000226146944506DA0A4600214042914181
:102810008C462D2102E0210504D52B216A46117337
:10282000012103E0E10701D02021F7E7029155E003
:102830000A200AE0102008E0102000900021042067
:1028400004430191082703E0082000210191009032
:102850006002410F022907D0189A01CA189200227B
:102860009446032908D008E01898C01DC108C90083
:1028700005C91891944603E080B2042900D1C0B282
:1028800000210291210729D51199702906D0009ABB
:102890001021019B4A401A4305D00EE040216A46B0
:1028A0001173012108E06146014306D030216A46D8
:1028B00011731199517302210291009A0821019B11
:1028C0004A401A430AD16146014301D1610705D547
:1028D00030216A46117301217F1E029111995829F6
:1028E00004D035A10E910DA90D910DE037A1F9E7A6
:1028F0006146019B009AFDF70FFC0E9B8C469B5C8A
:102900000D9A521E0D92137061460143F0D10D983D
:1029100005A9081A20300190600703D501200004A2
:10292000844300E001270198874201DD381A00E066
:102930000020019900904118029809180498401A43
:102940000490E00306D421461A9B199A049800F0DB
:10295000B3F94519002706E003A81A9AC05D199932
:1029600090476D1C7F1C02988742F5DBE0030CD575
:1029700021461A9B199A049800F09EF9451904E023
:102980001A9A3020199990476D1C0099481E0090A2
:102990000029F5DC08E00D980D990078491C0D918F
:1029A0001A9A199990476D1C0199481E01900029A7
:1029B000F1DC63E109280100303132333435363738
:1029C000383961626364656600000000303132337B
:1029D000343536373839414243444546000000001B
:1029E00000F05AF94519761C3078002800D0E2E54D
:1029F00028461BB0F0BD600700D406271898C01DFC
:102A0000C108C90048680A680831C30FDB0718917C
:102A1000190001D09CA108E0210501D59BA104E08B
:102A2000E10701D09AA100E09AA1430011985B0848
:102A3000109165280CD006DC452809D046281DD009
:102A4000472841D141E0662818D067283CD13CE0B6
:102A50000021112F01DB112000E0781C0191009072
:102A600008A911A8FFF7E8FC139905910021119A14
:102A700015927F1C12980197009150E00120C00729
:102A800003900120019008A9009711A8FFF7D4FC3A
:102A9000139A149905920022119B00921298159393
:102AA000059A0192002901D0104602E0791C4018D5
:102AB0000190381A01D5019804E04042401E009070
:102AC000781C0190C01B029043E0012F00DA01271F
:102AD0000021112F01DD112000E038460191009006
:102AE00008A911A8FFF7A8FC13990591119A0021D4
:102AF000129815920091019721070CD40599B942BB
:102B000001DB019900E00191012904DD159A491EBC
:102B1000515C302906D0B84201DA011D05DA0121E5
:102B2000029115E00199491EEDE7002805DC0099A6
:102B3000411800910199091A03E0019A411C914240
:102B400000DD01910099401A401C02900120C0074D
:102B50000390200706D402990198814202DB0020ED
:102B6000C043029000206946C87707AF012103984F
:102B70000337C907884224D0022011902B201290DD
:102B8000039800280CDA404203902D20129007E0B1
:102B90000A210398FDF7AAFA30317F1E039039709D
:102BA0001199481E11900029F2DC03980028EFD1FA
:102BB000791E129808703078202108404530BF1ED9
:102BC000387006A8C01BC01D03901098007800281C
:102BD00000D00120019941180298C01709180398E4
:102BE00009180498401A401E0490E00306D42146B8
:102BF0001A9B199A049800F05FF84519109800780C
:102C0000002803D01A9A199990476D1CE00324D527
:102C100021461A9B199A049800F04EF845191CE0B9
:102C20000098002807DB00990598884203DD159875
:102C3000405C199901E0199930201A9A9047009840
:102C40006D1C401C00900298401E0290002804D188
:102C50001A9A2E20199990476D1C0199481E0190CF
:102C60000029DDDC05E038781A9A7F1C1999904715
:102C70006D1C0399481E03900029F4DC21461A9B21
:102C8000199A0498ACE600002D0000002B0000000B
:102C90002000000000000000F8B5044600251E4694
:102CA0001746880404D405E039462020B0476D1C3F
:102CB000641EF9D52846F8BDFFB50446002581B04D
:102CC0001E46C80301D5302700E02027880404D51C
:102CD00005E038460399B0476D1C641EF9D52846B7
:102CE00005B0F0BD4A68002A06D00A68531C0B6084
:102CF00010704868401E4860704700000FB410B55F
:102D0000002809D006490A68904205DC4B68002B70
:102D100002D004AA0399984710BC08BC04B0184715
:102D200000000020054A0028106001DA002002E0BF
:102D3000062801DD06201060516070470000002069
:102D4000F7B586B01746054600241822184968468C
:102D5000FDF723FA1748416F2029FCD1A8006946E6
:102D60000B58154E8025291B301914A2FFF7BAFA0B
:102D7000001984B2802C19D2291B30193B46079ABE
:102D8000FFF7CAFA001984B2802C0FD2291B301920
:102D90000CA2FFF7A7FA001984B2802C06D22246B3
:102DA00005490448FEF788FD0028F8D109B0F0BDB8
:102DB00034300008880100201C00002025733A20D0
:102DC000000000000D0A000002464018514003D4E4
:102DD000424001D50120C0077047F3B581B00F0014
:102DE00048D00198002801DB054600E04542002F4D
:102DF00001DB0E4600E07E42002011240090300DE1
:102E00000FD0710C2846491CFDF770F9314600902F
:102E1000FFF7C7FAC903400C08432D1A01E0360931
:102E2000241F30072BD1042CF9DA28E00021284692
:102E3000002D04D120210AE0091DC9B20001020FB2
:102E4000FAD002E0491CC9B240000028FADAA142D7
:102E500000DD214628468840641A3146FDF746F9D0
:102E60000246009BA240D21800920022D243E240C8
:102E7000904302D00120C007FEBD4D00641E002D0E
:102E800001D0002CD2DA00980199401C400879400A
:102E9000F2D50121C907884201D10846FEBD404252
:102EA000FEBD10B5FFF765FA0123CA13DB07002941
:102EB00005DA521C05D1521E401E514103E0002A82
:102EC00001D0184610BD0A04010C11430122D2039F
:102ED0001040C00B401810BD0246401A514003D5A7
:102EE000424001D50120C0077047000008B569467F
:102EF0000870022301220248FEF776FC002008BD7C
:102F000088010020FDF712FFFEF7DAFDFEF74AFD0B
:102F1000FEF72CFDFEF7A0FD23490520FFF702FF79
:102F200022A0FFF7CFF92B4F2B4E10213846FDF78B
:102F30002CFAFDF763FB054610213046FDF725FA14
:102F4000FDF75CFB044625A10320FFF7D7FE012215
:102F500031463846FEF7D4FE022231463846FEF7A7
:102F6000CFFE032231463846FEF7CAFE0422314620
:102F70003846FEF7C5FE24A10320FFF7BFFE01225D
:102F800021462846FEF7D0FD022221462846FEF7BC
:102F9000CBFD032221462846FEF7C6FD042221462A
:102FA0002846FEF7C1FDFEE7412D00082D2D2D2DF1
:102FB0002D2D2D2D2D2D2D43616C63756C61746548
:102FC00020546573742D2D2D2D2D2D2D2D2D2D2D52
:102FD0002D0A00007F48F642571180432D2D2D2DDC
:102FE0002D2D2D2D2D2D2D43616C63756C61746518
:102FF00020466C6F617420446174612D2D2D2D2D40
:103000002D2D2D2D2D2D00002D2D2D2D2D2D2D2D4A
:103010002D2D2D43616C63756C61746520513136C3
:1030200020446174612D2D2D2D2D2D2D2D2D2D2D17
:103030002D2D00007830000868300008743000083A
:103040006C30000870300008643000080000000098
:103050000000000001020304060708090000000048
:10306000010203045B445D005B455D005B495D005C
:103070005B565D005B575D00000000009C3000085F
:10308000000000201C00000018240008B8300008D0
:103090001C00002074060000282400080000000026
:1030A000000000000100000004000000000000001B
:0830B00000127A00000000008C
:04000005080000BD32
:00000001FF
